{
  "_format": "hh-sol-artifact-1",
  "contractName": "Eul",
  "sourceName": "contracts/governance/Eul.sol",
  "abi": [
    {
      "inputs": [
        {
          "internalType": "string",
          "name": "name",
          "type": "string"
        },
        {
          "internalType": "string",
          "name": "symbol",
          "type": "string"
        },
        {
          "internalType": "uint256",
          "name": "totalSupply_",
          "type": "uint256"
        },
        {
          "internalType": "uint256",
          "name": "mintingRestrictedBefore_",
          "type": "uint256"
        },
        {
          "internalType": "address",
          "name": "treasury_",
          "type": "address"
        }
      ],
      "stateMutability": "nonpayable",
      "type": "constructor"
    },
    {
      "anonymous": false,
      "inputs": [
        {
          "indexed": true,
          "internalType": "address",
          "name": "owner",
          "type": "address"
        },
        {
          "indexed": true,
          "internalType": "address",
          "name": "spender",
          "type": "address"
        },
        {
          "indexed": false,
          "internalType": "uint256",
          "name": "value",
          "type": "uint256"
        }
      ],
      "name": "Approval",
      "type": "event"
    },
    {
      "anonymous": false,
      "inputs": [
        {
          "indexed": true,
          "internalType": "address",
          "name": "delegator",
          "type": "address"
        },
        {
          "indexed": true,
          "internalType": "address",
          "name": "fromDelegate",
          "type": "address"
        },
        {
          "indexed": true,
          "internalType": "address",
          "name": "toDelegate",
          "type": "address"
        }
      ],
      "name": "DelegateChanged",
      "type": "event"
    },
    {
      "anonymous": false,
      "inputs": [
        {
          "indexed": true,
          "internalType": "address",
          "name": "delegate",
          "type": "address"
        },
        {
          "indexed": false,
          "internalType": "uint256",
          "name": "previousBalance",
          "type": "uint256"
        },
        {
          "indexed": false,
          "internalType": "uint256",
          "name": "newBalance",
          "type": "uint256"
        }
      ],
      "name": "DelegateVotesChanged",
      "type": "event"
    },
    {
      "anonymous": false,
      "inputs": [
        {
          "indexed": true,
          "internalType": "bytes32",
          "name": "role",
          "type": "bytes32"
        },
        {
          "indexed": true,
          "internalType": "bytes32",
          "name": "previousAdminRole",
          "type": "bytes32"
        },
        {
          "indexed": true,
          "internalType": "bytes32",
          "name": "newAdminRole",
          "type": "bytes32"
        }
      ],
      "name": "RoleAdminChanged",
      "type": "event"
    },
    {
      "anonymous": false,
      "inputs": [
        {
          "indexed": true,
          "internalType": "bytes32",
          "name": "role",
          "type": "bytes32"
        },
        {
          "indexed": true,
          "internalType": "address",
          "name": "account",
          "type": "address"
        },
        {
          "indexed": true,
          "internalType": "address",
          "name": "sender",
          "type": "address"
        }
      ],
      "name": "RoleGranted",
      "type": "event"
    },
    {
      "anonymous": false,
      "inputs": [
        {
          "indexed": true,
          "internalType": "bytes32",
          "name": "role",
          "type": "bytes32"
        },
        {
          "indexed": true,
          "internalType": "address",
          "name": "account",
          "type": "address"
        },
        {
          "indexed": true,
          "internalType": "address",
          "name": "sender",
          "type": "address"
        }
      ],
      "name": "RoleRevoked",
      "type": "event"
    },
    {
      "anonymous": false,
      "inputs": [
        {
          "indexed": true,
          "internalType": "address",
          "name": "from",
          "type": "address"
        },
        {
          "indexed": true,
          "internalType": "address",
          "name": "to",
          "type": "address"
        },
        {
          "indexed": false,
          "internalType": "uint256",
          "name": "value",
          "type": "uint256"
        }
      ],
      "name": "Transfer",
      "type": "event"
    },
    {
      "anonymous": false,
      "inputs": [
        {
          "indexed": false,
          "internalType": "address",
          "name": "newTreasury",
          "type": "address"
        }
      ],
      "name": "TreasuryUpdated",
      "type": "event"
    },
    {
      "inputs": [],
      "name": "ADMIN_ROLE",
      "outputs": [
        {
          "internalType": "bytes32",
          "name": "",
          "type": "bytes32"
        }
      ],
      "stateMutability": "view",
      "type": "function"
    },
    {
      "inputs": [],
      "name": "DEFAULT_ADMIN_ROLE",
      "outputs": [
        {
          "internalType": "bytes32",
          "name": "",
          "type": "bytes32"
        }
      ],
      "stateMutability": "view",
      "type": "function"
    },
    {
      "inputs": [],
      "name": "DOMAIN_SEPARATOR",
      "outputs": [
        {
          "internalType": "bytes32",
          "name": "",
          "type": "bytes32"
        }
      ],
      "stateMutability": "view",
      "type": "function"
    },
    {
      "inputs": [],
      "name": "MINT_MAX_PERCENT",
      "outputs": [
        {
          "internalType": "uint256",
          "name": "",
          "type": "uint256"
        }
      ],
      "stateMutability": "view",
      "type": "function"
    },
    {
      "inputs": [],
      "name": "MINT_MIN_INTERVAL",
      "outputs": [
        {
          "internalType": "uint256",
          "name": "",
          "type": "uint256"
        }
      ],
      "stateMutability": "view",
      "type": "function"
    },
    {
      "inputs": [
        {
          "internalType": "address",
          "name": "owner",
          "type": "address"
        },
        {
          "internalType": "address",
          "name": "spender",
          "type": "address"
        }
      ],
      "name": "allowance",
      "outputs": [
        {
          "internalType": "uint256",
          "name": "",
          "type": "uint256"
        }
      ],
      "stateMutability": "view",
      "type": "function"
    },
    {
      "inputs": [
        {
          "internalType": "address",
          "name": "spender",
          "type": "address"
        },
        {
          "internalType": "uint256",
          "name": "amount",
          "type": "uint256"
        }
      ],
      "name": "approve",
      "outputs": [
        {
          "internalType": "bool",
          "name": "",
          "type": "bool"
        }
      ],
      "stateMutability": "nonpayable",
      "type": "function"
    },
    {
      "inputs": [
        {
          "internalType": "address",
          "name": "account",
          "type": "address"
        }
      ],
      "name": "balanceOf",
      "outputs": [
        {
          "internalType": "uint256",
          "name": "",
          "type": "uint256"
        }
      ],
      "stateMutability": "view",
      "type": "function"
    },
    {
      "inputs": [
        {
          "internalType": "address",
          "name": "account",
          "type": "address"
        },
        {
          "internalType": "uint32",
          "name": "pos",
          "type": "uint32"
        }
      ],
      "name": "checkpoints",
      "outputs": [
        {
          "components": [
            {
              "internalType": "uint32",
              "name": "fromBlock",
              "type": "uint32"
            },
            {
              "internalType": "uint224",
              "name": "votes",
              "type": "uint224"
            }
          ],
          "internalType": "struct ERC20Votes.Checkpoint",
          "name": "",
          "type": "tuple"
        }
      ],
      "stateMutability": "view",
      "type": "function"
    },
    {
      "inputs": [],
      "name": "decimals",
      "outputs": [
        {
          "internalType": "uint8",
          "name": "",
          "type": "uint8"
        }
      ],
      "stateMutability": "view",
      "type": "function"
    },
    {
      "inputs": [
        {
          "internalType": "address",
          "name": "spender",
          "type": "address"
        },
        {
          "internalType": "uint256",
          "name": "subtractedValue",
          "type": "uint256"
        }
      ],
      "name": "decreaseAllowance",
      "outputs": [
        {
          "internalType": "bool",
          "name": "",
          "type": "bool"
        }
      ],
      "stateMutability": "nonpayable",
      "type": "function"
    },
    {
      "inputs": [
        {
          "internalType": "address",
          "name": "delegatee",
          "type": "address"
        }
      ],
      "name": "delegate",
      "outputs": [],
      "stateMutability": "nonpayable",
      "type": "function"
    },
    {
      "inputs": [
        {
          "internalType": "address",
          "name": "delegatee",
          "type": "address"
        },
        {
          "internalType": "uint256",
          "name": "nonce",
          "type": "uint256"
        },
        {
          "internalType": "uint256",
          "name": "expiry",
          "type": "uint256"
        },
        {
          "internalType": "uint8",
          "name": "v",
          "type": "uint8"
        },
        {
          "internalType": "bytes32",
          "name": "r",
          "type": "bytes32"
        },
        {
          "internalType": "bytes32",
          "name": "s",
          "type": "bytes32"
        }
      ],
      "name": "delegateBySig",
      "outputs": [],
      "stateMutability": "nonpayable",
      "type": "function"
    },
    {
      "inputs": [
        {
          "internalType": "address",
          "name": "account",
          "type": "address"
        }
      ],
      "name": "delegates",
      "outputs": [
        {
          "internalType": "address",
          "name": "",
          "type": "address"
        }
      ],
      "stateMutability": "view",
      "type": "function"
    },
    {
      "inputs": [
        {
          "internalType": "uint256",
          "name": "blockNumber",
          "type": "uint256"
        }
      ],
      "name": "getPastTotalSupply",
      "outputs": [
        {
          "internalType": "uint256",
          "name": "",
          "type": "uint256"
        }
      ],
      "stateMutability": "view",
      "type": "function"
    },
    {
      "inputs": [
        {
          "internalType": "address",
          "name": "account",
          "type": "address"
        },
        {
          "internalType": "uint256",
          "name": "blockNumber",
          "type": "uint256"
        }
      ],
      "name": "getPastVotes",
      "outputs": [
        {
          "internalType": "uint256",
          "name": "",
          "type": "uint256"
        }
      ],
      "stateMutability": "view",
      "type": "function"
    },
    {
      "inputs": [
        {
          "internalType": "bytes32",
          "name": "role",
          "type": "bytes32"
        }
      ],
      "name": "getRoleAdmin",
      "outputs": [
        {
          "internalType": "bytes32",
          "name": "",
          "type": "bytes32"
        }
      ],
      "stateMutability": "view",
      "type": "function"
    },
    {
      "inputs": [
        {
          "internalType": "address",
          "name": "account",
          "type": "address"
        }
      ],
      "name": "getVotes",
      "outputs": [
        {
          "internalType": "uint256",
          "name": "",
          "type": "uint256"
        }
      ],
      "stateMutability": "view",
      "type": "function"
    },
    {
      "inputs": [
        {
          "internalType": "bytes32",
          "name": "role",
          "type": "bytes32"
        },
        {
          "internalType": "address",
          "name": "account",
          "type": "address"
        }
      ],
      "name": "grantRole",
      "outputs": [],
      "stateMutability": "nonpayable",
      "type": "function"
    },
    {
      "inputs": [
        {
          "internalType": "bytes32",
          "name": "role",
          "type": "bytes32"
        },
        {
          "internalType": "address",
          "name": "account",
          "type": "address"
        }
      ],
      "name": "hasRole",
      "outputs": [
        {
          "internalType": "bool",
          "name": "",
          "type": "bool"
        }
      ],
      "stateMutability": "view",
      "type": "function"
    },
    {
      "inputs": [
        {
          "internalType": "address",
          "name": "spender",
          "type": "address"
        },
        {
          "internalType": "uint256",
          "name": "addedValue",
          "type": "uint256"
        }
      ],
      "name": "increaseAllowance",
      "outputs": [
        {
          "internalType": "bool",
          "name": "",
          "type": "bool"
        }
      ],
      "stateMutability": "nonpayable",
      "type": "function"
    },
    {
      "inputs": [],
      "name": "mint",
      "outputs": [],
      "stateMutability": "nonpayable",
      "type": "function"
    },
    {
      "inputs": [],
      "name": "mintingRestrictedBefore",
      "outputs": [
        {
          "internalType": "uint256",
          "name": "",
          "type": "uint256"
        }
      ],
      "stateMutability": "view",
      "type": "function"
    },
    {
      "inputs": [],
      "name": "name",
      "outputs": [
        {
          "internalType": "string",
          "name": "",
          "type": "string"
        }
      ],
      "stateMutability": "view",
      "type": "function"
    },
    {
      "inputs": [
        {
          "internalType": "address",
          "name": "owner",
          "type": "address"
        }
      ],
      "name": "nonces",
      "outputs": [
        {
          "internalType": "uint256",
          "name": "",
          "type": "uint256"
        }
      ],
      "stateMutability": "view",
      "type": "function"
    },
    {
      "inputs": [
        {
          "internalType": "address",
          "name": "account",
          "type": "address"
        }
      ],
      "name": "numCheckpoints",
      "outputs": [
        {
          "internalType": "uint32",
          "name": "",
          "type": "uint32"
        }
      ],
      "stateMutability": "view",
      "type": "function"
    },
    {
      "inputs": [
        {
          "internalType": "address",
          "name": "owner",
          "type": "address"
        },
        {
          "internalType": "address",
          "name": "spender",
          "type": "address"
        },
        {
          "internalType": "uint256",
          "name": "value",
          "type": "uint256"
        },
        {
          "internalType": "uint256",
          "name": "deadline",
          "type": "uint256"
        },
        {
          "internalType": "uint8",
          "name": "v",
          "type": "uint8"
        },
        {
          "internalType": "bytes32",
          "name": "r",
          "type": "bytes32"
        },
        {
          "internalType": "bytes32",
          "name": "s",
          "type": "bytes32"
        }
      ],
      "name": "permit",
      "outputs": [],
      "stateMutability": "nonpayable",
      "type": "function"
    },
    {
      "inputs": [
        {
          "internalType": "bytes32",
          "name": "role",
          "type": "bytes32"
        },
        {
          "internalType": "address",
          "name": "account",
          "type": "address"
        }
      ],
      "name": "renounceRole",
      "outputs": [],
      "stateMutability": "nonpayable",
      "type": "function"
    },
    {
      "inputs": [
        {
          "internalType": "bytes32",
          "name": "role",
          "type": "bytes32"
        },
        {
          "internalType": "address",
          "name": "account",
          "type": "address"
        }
      ],
      "name": "revokeRole",
      "outputs": [],
      "stateMutability": "nonpayable",
      "type": "function"
    },
    {
      "inputs": [
        {
          "internalType": "bytes4",
          "name": "interfaceId",
          "type": "bytes4"
        }
      ],
      "name": "supportsInterface",
      "outputs": [
        {
          "internalType": "bool",
          "name": "",
          "type": "bool"
        }
      ],
      "stateMutability": "view",
      "type": "function"
    },
    {
      "inputs": [],
      "name": "symbol",
      "outputs": [
        {
          "internalType": "string",
          "name": "",
          "type": "string"
        }
      ],
      "stateMutability": "view",
      "type": "function"
    },
    {
      "inputs": [],
      "name": "totalSupply",
      "outputs": [
        {
          "internalType": "uint256",
          "name": "",
          "type": "uint256"
        }
      ],
      "stateMutability": "view",
      "type": "function"
    },
    {
      "inputs": [
        {
          "internalType": "address",
          "name": "to",
          "type": "address"
        },
        {
          "internalType": "uint256",
          "name": "amount",
          "type": "uint256"
        }
      ],
      "name": "transfer",
      "outputs": [
        {
          "internalType": "bool",
          "name": "",
          "type": "bool"
        }
      ],
      "stateMutability": "nonpayable",
      "type": "function"
    },
    {
      "inputs": [
        {
          "internalType": "address",
          "name": "from",
          "type": "address"
        },
        {
          "internalType": "address",
          "name": "to",
          "type": "address"
        },
        {
          "internalType": "uint256",
          "name": "amount",
          "type": "uint256"
        }
      ],
      "name": "transferFrom",
      "outputs": [
        {
          "internalType": "bool",
          "name": "",
          "type": "bool"
        }
      ],
      "stateMutability": "nonpayable",
      "type": "function"
    },
    {
      "inputs": [],
      "name": "treasury",
      "outputs": [
        {
          "internalType": "address",
          "name": "",
          "type": "address"
        }
      ],
      "stateMutability": "view",
      "type": "function"
    },
    {
      "inputs": [
        {
          "internalType": "address",
          "name": "newTreasury",
          "type": "address"
        }
      ],
      "name": "updateTreasury",
      "outputs": [],
      "stateMutability": "nonpayable",
      "type": "function"
    }
  ],
  "bytecode": "0x6101406040523480156200001257600080fd5b506040516200316438038062003164833981016040819052620000359162000a69565b8480604051806040016040528060018152602001603160f81b815250878781600390805190602001906200006b9291906200091a565b508051620000819060049060208401906200091a565b5050825160208085019190912083518483012060e08290526101008190524660a0818152604080517f8b73c3c69bb8fe3d512ecc4cf759cc79239f7b179b0ffacaa9a75d522b39400f81880181905281830187905260608201869052608082019490945230818401528151808203909301835260c0019052805194019390932091935091906080523060601b60c05261012052505042851192506200017c9150505760405162461bcd60e51b815260206004820152602360248201527f4d494e54494e475f524553545249435445445f4245464f52455f544f4f5f4541604482015262524c5960e81b60648201526084015b60405180910390fd5b6001600160a01b038116620001e85760405162461bcd60e51b815260206004820152602b60248201527f63616e6e6f7420736574206f72206d696e7420746f207a65726f20747265617360448201526a757279206164647265737360a81b606482015260840162000173565b600b829055600c80546001600160a01b0319166001600160a01b03831617905562000214818462000258565b620002216000826200030b565b6200024d7fa49807205ce4d355092ef5a8a18f56e8913cf4a201fbe287825b095693c21775826200030b565b505050505062000ba5565b6200026f82826200031b60201b62000e7c1760201c565b6001600160e01b03620002836200040a8216565b1115620002ec5760405162461bcd60e51b815260206004820152603060248201527f4552433230566f7465733a20746f74616c20737570706c79207269736b73206f60448201526f766572666c6f77696e6720766f74657360801b606482015260840162000173565b62000305600962000f516200041060201b178362000425565b50505050565b620003178282620005fb565b5050565b6001600160a01b038216620003735760405162461bcd60e51b815260206004820152601f60248201527f45524332303a206d696e7420746f20746865207a65726f206164647265737300604482015260640162000173565b806002600082825462000387919062000b07565b90915550506001600160a01b03821660009081526020819052604081208054839290620003b690849062000b07565b90915550506040518181526001600160a01b038316906000907fddf252ad1be2c89b69c2b068fc378daa952ba7f163c4a11628f55a4df523b3ef9060200160405180910390a36200031760008383620006a4565b60025490565b60006200041e828462000b07565b9392505050565b8254600090819080156200048357856200044160018362000b22565b815481106200046057634e487b7160e01b600052603260045260246000fd5b60009182526020909120015464010000000090046001600160e01b031662000486565b60005b6001600160e01b031692506200049d83858760201c565b9150600081118015620004ed57504386620004ba60018462000b22565b81548110620004d957634e487b7160e01b600052603260045260246000fd5b60009182526020909120015463ffffffff16145b156200056d576200050982620006dd60201b62000f5d1760201c565b866200051760018462000b22565b815481106200053657634e487b7160e01b600052603260045260246000fd5b9060005260206000200160000160046101000a8154816001600160e01b0302191690836001600160e01b03160217905550620005f2565b8560405180604001604052806200058f436200074c60201b62000fca1760201c565b63ffffffff168152602001620005b085620006dd60201b62000f5d1760201c565b6001600160e01b0390811690915282546001810184556000938452602093849020835194909301519091166401000000000263ffffffff909316929092179101555b50935093915050565b6000828152600a602090815260408083206001600160a01b038516845290915290205460ff1662000317576000828152600a602090815260408083206001600160a01b03851684529091529020805460ff191660011790556200065b3390565b6001600160a01b0316816001600160a01b0316837f2f8788117e7eff1d82e926ec794901d17c78024a50270940304540a733656f0d60405160405180910390a45050565b505050565b620006bc8383836200069f60201b620007151760201c565b6200069f620006cb84620007b3565b620006d684620007b3565b83620007d1565b60006001600160e01b03821115620007485760405162461bcd60e51b815260206004820152602760248201527f53616665436173743a2076616c756520646f65736e27742066697420696e20326044820152663234206269747360c81b606482015260840162000173565b5090565b600063ffffffff821115620007485760405162461bcd60e51b815260206004820152602660248201527f53616665436173743a2076616c756520646f65736e27742066697420696e203360448201526532206269747360d01b606482015260840162000173565b6001600160a01b039081166000908152600760205260409020541690565b816001600160a01b0316836001600160a01b031614158015620007f45750600081115b156200069f576001600160a01b0383161562000881576001600160a01b0383166000908152600860209081526040822082916200083e91906200090c901b6200102f178562000425565b91509150846001600160a01b031660008051602062003144833981519152838360405162000876929190918252602082015260400190565b60405180910390a250505b6001600160a01b038216156200069f576001600160a01b038216600090815260086020908152604082208291620008c5919062000410901b62000f51178562000425565b91509150836001600160a01b0316600080516020620031448339815191528383604051620008fd929190918252602082015260400190565b60405180910390a25050505050565b60006200041e828462000b22565b828054620009289062000b3c565b90600052602060002090601f0160209004810192826200094c576000855562000997565b82601f106200096757805160ff191683800117855562000997565b8280016001018555821562000997579182015b82811115620009975782518255916020019190600101906200097a565b50620007489291505b80821115620007485760008155600101620009a0565b600082601f830112620009c7578081fd5b81516001600160401b0380821115620009e457620009e462000b8f565b604051601f8301601f19908116603f0116810190828211818310171562000a0f5762000a0f62000b8f565b8160405283815260209250868385880101111562000a2b578485fd5b8491505b8382101562000a4e578582018301518183018401529082019062000a2f565b8382111562000a5f57848385830101525b9695505050505050565b600080600080600060a0868803121562000a81578081fd5b85516001600160401b038082111562000a98578283fd5b62000aa689838a01620009b6565b9650602088015191508082111562000abc578283fd5b5062000acb88828901620009b6565b6040880151606089015160808a0151929750909550935090506001600160a01b038116811462000af9578182fd5b809150509295509295909350565b6000821982111562000b1d5762000b1d62000b79565b500190565b60008282101562000b375762000b3762000b79565b500390565b600181811c9082168062000b5157607f821691505b6020821081141562000b7357634e487b7160e01b600052602260045260246000fd5b50919050565b634e487b7160e01b600052601160045260246000fd5b634e487b7160e01b600052604160045260246000fd5b60805160a05160c05160601c60e051610100516101205161254c62000bf8600039600061153f0152600061158e01526000611569015260006114c2015260006114ec01526000611516015261254c6000f3fe608060405234801561001057600080fd5b50600436106101ac5760003560e01c806301ffc9a7146101b157806306fdde03146101d9578063095ea7b3146101ee5780631249c58b1461020157806318160ddd1461020b57806323b872dd1461021d578063248a9ca3146102305780632f2ff15d14610243578063313ce567146102565780633644e5151461026557806336568abe1461026d57806339509351146102805780633a46b1a814610293578063449443f2146102a6578063587cde1e146102af5780635c19a95c146102cf57806361d027b3146102e2578063657c7a85146102f557806369e3b0d0146102fe5780636fcfff451461030957806370a082311461033157806375b238fc146103445780637ecebe00146103595780637f51bb1f1461036c5780638e539e8c1461037f57806391d148541461039257806395d89b41146103a55780639ab24eb0146103ad578063a217fddf146103c0578063a457c2d7146103c8578063a9059cbb146103db578063c3cda520146103ee578063d505accf14610401578063d547741f14610414578063dd62ed3e14610427578063f1127ed81461043a575b600080fd5b6101c46101bf366004612262565b610477565b60405190151581526020015b60405180910390f35b6101e16104ae565b6040516101d0919061230d565b6101c46101fc36600461216a565b610540565b610209610558565b005b6002545b6040519081526020016101d0565b6101c461022b3660046120c6565b6106c0565b61020f61023e366004612228565b6106e4565b610209610251366004612240565b6106f9565b604051601281526020016101d0565b61020f61071a565b61020961027b366004612240565b610729565b6101c461028e36600461216a565b6107a7565b61020f6102a136600461216a565b6107c9565b61020f600b5481565b6102c26102bd36600461207a565b610813565b6040516101d091906122f9565b6102096102dd36600461207a565b610831565b600c546102c2906001600160a01b031681565b61020f610a9e81565b61020f6301e1338081565b61031c61031736600461207a565b61083b565b60405163ffffffff90911681526020016101d0565b61020f61033f36600461207a565b61085d565b61020f6000805160206124d783398151915281565b61020f61036736600461207a565b610878565b61020961037a36600461207a565b610896565b61020f61038d366004612228565b61098b565b6101c46103a0366004612240565b6109b7565b6101e16109e2565b61020f6103bb36600461207a565b6109f1565b61020f600081565b6101c46103d636600461216a565b610a85565b6101c46103e936600461216a565b610b00565b6102096103fc366004612193565b610b0e565b61020961040f366004612101565b610c40565b610209610422366004612240565b610da4565b61020f610435366004612094565b610dc0565b61044d6104483660046121ea565b610deb565b60408051825163ffffffff1681526020928301516001600160e01b031692810192909252016101d0565b60006001600160e01b03198216637965db0b60e01b14806104a857506301ffc9a760e01b6001600160e01b03198316145b92915050565b6060600380546104bd9061246b565b80601f01602080910402602001604051908101604052809291908181526020018280546104e99061246b565b80156105365780601f1061050b57610100808354040283529160200191610536565b820191906000526020600020905b81548152906001019060200180831161051957829003601f168201915b5050505050905090565b60003361054e81858561103b565b5060019392505050565b6105706000805160206124d7833981519152336109b7565b6105955760405162461bcd60e51b815260040161058c90612377565b60405180910390fd5b600b544210156105d85760405162461bcd60e51b815260206004820152600e60248201526d4d494e545f544f4f5f4541524c5960901b604482015260640161058c565b600c546001600160a01b031661062b5760405162461bcd60e51b8152602060048201526018602482015277494e56414c49445f54524541535552595f4144445245535360401b604482015260640161058c565b6000620186a0610a9e61063d60025490565b61064791906123f2565b61065191906123d2565b9050600081116106965760405162461bcd60e51b815260206004820152601060248201526f43414e4e4f545f4d494e545f5a45524f60801b604482015260640161058c565b6106a46301e13380426123ba565b600b55600c546106bd906001600160a01b03168261115f565b50565b6000336106ce8582856111ef565b6106d9858585611263565b506001949350505050565b6000908152600a602052604090206001015490565b610702826106e4565b61070b81611425565b610715838361142f565b505050565b60006107246114b5565b905090565b6001600160a01b03811633146107995760405162461bcd60e51b815260206004820152602f60248201527f416363657373436f6e74726f6c3a2063616e206f6e6c792072656e6f756e636560448201526e103937b632b9903337b91039b2b63360891b606482015260840161058c565b6107a382826115dc565b5050565b60003361054e8185856107ba8383610dc0565b6107c491906123ba565b61103b565b60004382106107ea5760405162461bcd60e51b815260040161058c90612340565b6001600160a01b038316600090815260086020526040902061080c9083611643565b9392505050565b6001600160a01b039081166000908152600760205260409020541690565b6106bd338261171b565b6001600160a01b0381166000908152600860205260408120546104a890610fca565b6001600160a01b031660009081526020819052604090205490565b6001600160a01b0381166000908152600560205260408120546104a8565b6108ae6000805160206124d7833981519152336109b7565b6108ca5760405162461bcd60e51b815260040161058c90612377565b6001600160a01b0381166109345760405162461bcd60e51b815260206004820152602b60248201527f63616e6e6f7420736574206f72206d696e7420746f207a65726f20747265617360448201526a757279206164647265737360a81b606482015260840161058c565b600c80546001600160a01b0319166001600160a01b0383169081179091556040517f7dae230f18360d76a040c81f050aa14eb9d6dc7901b20fc5d855e2a20fe814d191610980916122f9565b60405180910390a150565b60004382106109ac5760405162461bcd60e51b815260040161058c90612340565b6104a8600983611643565b6000918252600a602090815260408084206001600160a01b0393909316845291905290205460ff1690565b6060600480546104bd9061246b565b6001600160a01b0381166000908152600860205260408120548015610a72576001600160a01b0383166000908152600860205260409020610a33600183612411565b81548110610a5157634e487b7160e01b600052603260045260246000fd5b600091825260209091200154600160201b90046001600160e01b0316610a75565b60005b6001600160e01b03169392505050565b60003381610a938286610dc0565b905083811015610af35760405162461bcd60e51b815260206004820152602560248201527f45524332303a2064656372656173656420616c6c6f77616e63652062656c6f77604482015264207a65726f60d81b606482015260840161058c565b6106d9828686840361103b565b60003361054e818585611263565b83421115610b5e5760405162461bcd60e51b815260206004820152601d60248201527f4552433230566f7465733a207369676e61747572652065787069726564000000604482015260640161058c565b604080517fe48329057bfd03d55e49b547132e39cffd9c1820ad7b9d4c5307691425d15adf60208201526001600160a01b038816918101919091526060810186905260808101859052600090610bd890610bd09060a0016040516020818303038152906040528051906020012061179b565b8585856117e9565b9050610be381611811565b8614610c2d5760405162461bcd60e51b81526020600482015260196024820152784552433230566f7465733a20696e76616c6964206e6f6e636560381b604482015260640161058c565b610c37818861171b565b50505050505050565b83421115610c905760405162461bcd60e51b815260206004820152601d60248201527f45524332305065726d69743a206578706972656420646561646c696e65000000604482015260640161058c565b60007f6e71edae12b1b97f4d1f60370fef10105fa2faae0126114a169c64845d6126c9888888610cbf8c611811565b6040805160208101969096526001600160a01b0394851690860152929091166060840152608083015260a082015260c0810186905260e0016040516020818303038152906040528051906020012090506000610d1a8261179b565b90506000610d2a828787876117e9565b9050896001600160a01b0316816001600160a01b031614610d8d5760405162461bcd60e51b815260206004820152601e60248201527f45524332305065726d69743a20696e76616c6964207369676e61747572650000604482015260640161058c565b610d988a8a8a61103b565b50505050505050505050565b610dad826106e4565b610db681611425565b61071583836115dc565b6001600160a01b03918216600090815260016020908152604080832093909416825291909152205490565b60408051808201909152600080825260208201526001600160a01b0383166000908152600860205260409020805463ffffffff8416908110610e3d57634e487b7160e01b600052603260045260246000fd5b60009182526020918290206040805180820190915291015463ffffffff81168252600160201b90046001600160e01b0316918101919091529392505050565b6001600160a01b038216610ed25760405162461bcd60e51b815260206004820152601f60248201527f45524332303a206d696e7420746f20746865207a65726f206164647265737300604482015260640161058c565b8060026000828254610ee491906123ba565b90915550506001600160a01b03821660009081526020819052604081208054839290610f119084906123ba565b90915550506040518181526001600160a01b038316906000906000805160206124b78339815191529060200160405180910390a36107a360008383611839565b600061080c82846123ba565b60006001600160e01b03821115610fc65760405162461bcd60e51b815260206004820152602760248201527f53616665436173743a2076616c756520646f65736e27742066697420696e20326044820152663234206269747360c81b606482015260840161058c565b5090565b600063ffffffff821115610fc65760405162461bcd60e51b815260206004820152602660248201527f53616665436173743a2076616c756520646f65736e27742066697420696e203360448201526532206269747360d01b606482015260840161058c565b600061080c8284612411565b6001600160a01b03831661109d5760405162461bcd60e51b8152602060048201526024808201527f45524332303a20617070726f76652066726f6d20746865207a65726f206164646044820152637265737360e01b606482015260840161058c565b6001600160a01b0382166110fe5760405162461bcd60e51b815260206004820152602260248201527f45524332303a20617070726f766520746f20746865207a65726f206164647265604482015261737360f01b606482015260840161058c565b6001600160a01b0383811660008181526001602090815260408083209487168084529482529182902085905590518481527f8c5be1e5ebec7d5bd14f71427d1e84f3dd0314c0f7b2291e5b200ac8c7c3b925910160405180910390a3505050565b6111698282610e7c565b6002546001600160e01b0310156111db5760405162461bcd60e51b815260206004820152603060248201527f4552433230566f7465733a20746f74616c20737570706c79207269736b73206f60448201526f766572666c6f77696e6720766f74657360801b606482015260840161058c565b6111e96009610f5183611854565b50505050565b60006111fb8484610dc0565b905060001981146111e957818110156112565760405162461bcd60e51b815260206004820152601d60248201527f45524332303a20696e73756666696369656e7420616c6c6f77616e6365000000604482015260640161058c565b6111e9848484840361103b565b6001600160a01b0383166112c75760405162461bcd60e51b815260206004820152602560248201527f45524332303a207472616e736665722066726f6d20746865207a65726f206164604482015264647265737360d81b606482015260840161058c565b6001600160a01b0382166113295760405162461bcd60e51b815260206004820152602360248201527f45524332303a207472616e7366657220746f20746865207a65726f206164647260448201526265737360e81b606482015260840161058c565b6001600160a01b038316600090815260208190526040902054818110156113a15760405162461bcd60e51b815260206004820152602660248201527f45524332303a207472616e7366657220616d6f756e7420657863656564732062604482015265616c616e636560d01b606482015260840161058c565b6001600160a01b038085166000908152602081905260408082208585039055918516815290812080548492906113d89084906123ba565b92505081905550826001600160a01b0316846001600160a01b03166000805160206124b78339815191528460405161141291815260200190565b60405180910390a36111e9848484611839565b6106bd81336119f5565b61143982826109b7565b6107a3576000828152600a602090815260408083206001600160a01b03851684529091529020805460ff191660011790556114713390565b6001600160a01b0316816001600160a01b0316837f2f8788117e7eff1d82e926ec794901d17c78024a50270940304540a733656f0d60405160405180910390a45050565b6000306001600160a01b037f00000000000000000000000000000000000000000000000000000000000000001614801561150e57507f000000000000000000000000000000000000000000000000000000000000000046145b1561153857507f000000000000000000000000000000000000000000000000000000000000000090565b50604080517f00000000000000000000000000000000000000000000000000000000000000006020808301919091527f0000000000000000000000000000000000000000000000000000000000000000828401527f000000000000000000000000000000000000000000000000000000000000000060608301524660808301523060a0808401919091528351808403909101815260c0909201909252805191012090565b6115e682826109b7565b156107a3576000828152600a602090815260408083206001600160a01b0385168085529252808320805460ff1916905551339285917ff6391f5c32d9c69d2a47ea670b442974b53935d1edc7fd64eb21e047a839171b9190a45050565b8154600090815b818110156116b557600061165e8284611a59565b90508486828154811061168157634e487b7160e01b600052603260045260246000fd5b60009182526020909120015463ffffffff1611156116a1578092506116af565b6116ac8160016123ba565b91505b5061164a565b811561170657846116c7600184612411565b815481106116e557634e487b7160e01b600052603260045260246000fd5b600091825260209091200154600160201b90046001600160e01b0316611709565b60005b6001600160e01b031695945050505050565b600061172683610813565b905060006117338461085d565b6001600160a01b0385811660008181526007602052604080822080546001600160a01b031916898616908117909155905194955093928616927f3134e8a2e6d97e929a7e54011ea5485d7d196dd5f0ba4d4ef95803e8e3fc257f9190a46111e9828483611a74565b60006104a86117a86114b5565b8360405161190160f01b6020820152602281018390526042810182905260009060620160405160208183030381529060405280519060200120905092915050565b60008060006117fa87878787611b8d565b9150915061180781611c70565b5095945050505050565b6001600160a01b03811660009081526005602052604090208054600181018255905b50919050565b61071561184584610813565b61184e84610813565b83611a74565b8254600090819080156118ac578561186d600183612411565b8154811061188b57634e487b7160e01b600052603260045260246000fd5b600091825260209091200154600160201b90046001600160e01b03166118af565b60005b6001600160e01b031692506118c883858763ffffffff16565b9150600081118015611914575043866118e2600184612411565b8154811061190057634e487b7160e01b600052603260045260246000fd5b60009182526020909120015463ffffffff16145b156119825761192282610f5d565b8661192e600184612411565b8154811061194c57634e487b7160e01b600052603260045260246000fd5b9060005260206000200160000160046101000a8154816001600160e01b0302191690836001600160e01b031602179055506119ec565b85604051806040016040528061199743610fca565b63ffffffff1681526020016119ab85610f5d565b6001600160e01b039081169091528254600181018455600093845260209384902083519490930151909116600160201b0263ffffffff909316929092179101555b50935093915050565b6119ff82826109b7565b6107a357611a17816001600160a01b03166014611e6c565b611a22836020611e6c565b604051602001611a3392919061228a565b60408051601f198184030181529082905262461bcd60e51b825261058c9160040161230d565b6000611a6860028484186123d2565b61080c908484166123ba565b816001600160a01b0316836001600160a01b031614158015611a965750600081115b15610715576001600160a01b03831615611b12576001600160a01b03831660009081526008602052604081208190611ad19061102f85611854565b91509150846001600160a01b03166000805160206124f78339815191528383604051611b07929190918252602082015260400190565b60405180910390a250505b6001600160a01b03821615610715576001600160a01b03821660009081526008602052604081208190611b4890610f5185611854565b91509150836001600160a01b03166000805160206124f78339815191528383604051611b7e929190918252602082015260400190565b60405180910390a25050505050565b6000806fa2a8918ca85bafe22016d0b997e4df60600160ff1b03831115611bba5750600090506003611c67565b8460ff16601b14158015611bd257508460ff16601c14155b15611be35750600090506004611c67565b6040805160008082526020820180845289905260ff881692820192909252606081018690526080810185905260019060a0016020604051602081039080840390855afa158015611c37573d6000803e3d6000fd5b5050604051601f1901519150506001600160a01b038116611c6057600060019250925050611c67565b9150600090505b94509492505050565b6000816004811115611c9257634e487b7160e01b600052602160045260246000fd5b1415611c9b5750565b6001816004811115611cbd57634e487b7160e01b600052602160045260246000fd5b1415611d065760405162461bcd60e51b815260206004820152601860248201527745434453413a20696e76616c6964207369676e617475726560401b604482015260640161058c565b6002816004811115611d2857634e487b7160e01b600052602160045260246000fd5b1415611d765760405162461bcd60e51b815260206004820152601f60248201527f45434453413a20696e76616c6964207369676e6174757265206c656e67746800604482015260640161058c565b6003816004811115611d9857634e487b7160e01b600052602160045260246000fd5b1415611df15760405162461bcd60e51b815260206004820152602260248201527f45434453413a20696e76616c6964207369676e6174757265202773272076616c604482015261756560f01b606482015260840161058c565b6004816004811115611e1357634e487b7160e01b600052602160045260246000fd5b14156106bd5760405162461bcd60e51b815260206004820152602260248201527f45434453413a20696e76616c6964207369676e6174757265202776272076616c604482015261756560f01b606482015260840161058c565b60606000611e7b8360026123f2565b611e869060026123ba565b6001600160401b03811115611eab57634e487b7160e01b600052604160045260246000fd5b6040519080825280601f01601f191660200182016040528015611ed5576020820181803683370190505b509050600360fc1b81600081518110611efe57634e487b7160e01b600052603260045260246000fd5b60200101906001600160f81b031916908160001a905350600f60fb1b81600181518110611f3b57634e487b7160e01b600052603260045260246000fd5b60200101906001600160f81b031916908160001a9053506000611f5f8460026123f2565b611f6a9060016123ba565b90505b6001811115611ffe576f181899199a1a9b1b9c1cb0b131b232b360811b85600f1660108110611fac57634e487b7160e01b600052603260045260246000fd5b1a60f81b828281518110611fd057634e487b7160e01b600052603260045260246000fd5b60200101906001600160f81b031916908160001a90535060049490941c93611ff781612454565b9050611f6d565b50831561080c5760405162461bcd60e51b815260206004820181905260248201527f537472696e67733a20686578206c656e67746820696e73756666696369656e74604482015260640161058c565b80356001600160a01b038116811461206457600080fd5b919050565b803560ff8116811461206457600080fd5b60006020828403121561208b578081fd5b61080c8261204d565b600080604083850312156120a6578081fd5b6120af8361204d565b91506120bd6020840161204d565b90509250929050565b6000806000606084860312156120da578081fd5b6120e38461204d565b92506120f16020850161204d565b9150604084013590509250925092565b600080600080600080600060e0888a03121561211b578283fd5b6121248861204d565b96506121326020890161204d565b9550604088013594506060880135935061214e60808901612069565b925060a0880135915060c0880135905092959891949750929550565b6000806040838503121561217c578182fd5b6121858361204d565b946020939093013593505050565b60008060008060008060c087890312156121ab578182fd5b6121b48761204d565b955060208701359450604087013593506121d060608801612069565b92506080870135915060a087013590509295509295509295565b600080604083850312156121fc578182fd5b6122058361204d565b9150602083013563ffffffff8116811461221d578182fd5b809150509250929050565b600060208284031215612239578081fd5b5035919050565b60008060408385031215612252578182fd5b823591506120bd6020840161204d565b600060208284031215612273578081fd5b81356001600160e01b03198116811461080c578182fd5b76020b1b1b2b9b9a1b7b73a3937b61d1030b1b1b7bab73a1604d1b8152600083516122bc816017850160208801612428565b7001034b99036b4b9b9b4b733903937b6329607d1b60179184019182015283516122ed816028840160208801612428565b01602801949350505050565b6001600160a01b0391909116815260200190565b602081526000825180602084015261232c816040850160208701612428565b601f01601f19169190910160400192915050565b6020808252601f908201527f4552433230566f7465733a20626c6f636b206e6f7420796574206d696e656400604082015260600190565b60208082526023908201527f43616c6c657220646f6573206e6f742068617665207468652041444d494e5f526040820152624f4c4560e81b606082015260800190565b600082198211156123cd576123cd6124a0565b500190565b6000826123ed57634e487b7160e01b81526012600452602481fd5b500490565b600081600019048311821515161561240c5761240c6124a0565b500290565b600082821015612423576124236124a0565b500390565b60005b8381101561244357818101518382015260200161242b565b838111156111e95750506000910152565b600081612463576124636124a0565b506000190190565b600181811c9082168061247f57607f821691505b6020821081141561183357634e487b7160e01b600052602260045260246000fd5b634e487b7160e01b600052601160045260246000fdfeddf252ad1be2c89b69c2b068fc378daa952ba7f163c4a11628f55a4df523b3efa49807205ce4d355092ef5a8a18f56e8913cf4a201fbe287825b095693c21775dec2bacdd2f05b59de34da9b523dff8be42e5e38e818c82fdb0bae774387a724a26469706673582212205d1569b609c6adda17a5d0b4fd72d8285e1102c4885ef39cb8dd3111edc398f764736f6c63430008040033dec2bacdd2f05b59de34da9b523dff8be42e5e38e818c82fdb0bae774387a724",
  "linkReferences": {},
  "deployedLinkReferences": {}
}