{
  "_format": "hh-sol-artifact-1",
  "contractName": "DeltaBalances",
  "sourceName": "contracts/views/DeltaBalances.sol",
  "abi": [
    {
      "inputs": [],
      "stateMutability": "nonpayable",
      "type": "constructor"
    },
    {
      "inputs": [],
      "name": "admin",
      "outputs": [
        {
          "internalType": "address payable",
          "name": "",
          "type": "address"
        }
      ],
      "stateMutability": "view",
      "type": "function"
    },
    {
      "inputs": [
        {
          "internalType": "address",
          "name": "exchange",
          "type": "address"
        },
        {
          "internalType": "address",
          "name": "user",
          "type": "address"
        },
        {
          "internalType": "address[]",
          "name": "tokens",
          "type": "address[]"
        }
      ],
      "name": "depositedBalances",
      "outputs": [
        {
          "internalType": "uint256[]",
          "name": "balances",
          "type": "uint256[]"
        }
      ],
      "stateMutability": "view",
      "type": "function"
    },
    {
      "inputs": [
        {
          "internalType": "address",
          "name": "exchange",
          "type": "address"
        },
        {
          "internalType": "bytes4",
          "name": "selector",
          "type": "bytes4"
        },
        {
          "internalType": "address",
          "name": "user",
          "type": "address"
        },
        {
          "internalType": "address[]",
          "name": "tokens",
          "type": "address[]"
        },
        {
          "internalType": "bool",
          "name": "userFirst",
          "type": "bool"
        }
      ],
      "name": "depositedBalancesGeneric",
      "outputs": [
        {
          "internalType": "uint256[]",
          "name": "balances",
          "type": "uint256[]"
        }
      ],
      "stateMutability": "view",
      "type": "function"
    },
    {
      "inputs": [
        {
          "internalType": "address",
          "name": "exchange",
          "type": "address"
        },
        {
          "internalType": "bytes4",
          "name": "selector",
          "type": "bytes4"
        },
        {
          "internalType": "address",
          "name": "user",
          "type": "address"
        }
      ],
      "name": "depositedEtherGeneric",
      "outputs": [
        {
          "internalType": "uint256",
          "name": "",
          "type": "uint256"
        }
      ],
      "stateMutability": "view",
      "type": "function"
    },
    {
      "inputs": [
        {
          "internalType": "string",
          "name": "functionSignature",
          "type": "string"
        }
      ],
      "name": "getFunctionSelector",
      "outputs": [
        {
          "internalType": "bytes4",
          "name": "",
          "type": "bytes4"
        }
      ],
      "stateMutability": "pure",
      "type": "function"
    },
    {
      "inputs": [
        {
          "internalType": "address",
          "name": "spenderContract",
          "type": "address"
        },
        {
          "internalType": "address",
          "name": "user",
          "type": "address"
        },
        {
          "internalType": "address[]",
          "name": "tokens",
          "type": "address[]"
        }
      ],
      "name": "tokenAllowances",
      "outputs": [
        {
          "internalType": "uint256[]",
          "name": "allowances",
          "type": "uint256[]"
        }
      ],
      "stateMutability": "view",
      "type": "function"
    },
    {
      "inputs": [
        {
          "internalType": "address",
          "name": "user",
          "type": "address"
        },
        {
          "internalType": "address[]",
          "name": "tokens",
          "type": "address[]"
        }
      ],
      "name": "tokenBalances",
      "outputs": [
        {
          "internalType": "uint256[]",
          "name": "balances",
          "type": "uint256[]"
        }
      ],
      "stateMutability": "view",
      "type": "function"
    },
    {
      "inputs": [],
      "name": "withdraw",
      "outputs": [],
      "stateMutability": "nonpayable",
      "type": "function"
    },
    {
      "inputs": [
        {
          "internalType": "address",
          "name": "token",
          "type": "address"
        },
        {
          "internalType": "uint256",
          "name": "amount",
          "type": "uint256"
        }
      ],
      "name": "withdrawToken",
      "outputs": [],
      "stateMutability": "nonpayable",
      "type": "function"
    }
  ],
  "bytecode": "0x608060405234801561001057600080fd5b50600080546001600160a01b03191633179055610f8c806100326000396000f3fe608060405234801561001057600080fd5b50600436106100a35760003560e01c80639e281a9811610076578063ed5835061161005b578063ed58350614610158578063f851a4401461016b578063fe8b2707146101b057600080fd5b80639e281a9814610101578063de38c3d01461011457600080fd5b80631621c4e5146100a85780633ad206cc146100d15780633ccfd60b146100e457806383dfb65a146100ee575b600080fd5b6100bb6100b6366004610b5f565b6101d1565b6040516100c89190610bc0565b60405180910390f35b6100bb6100df366004610c04565b610336565b6100ec610471565b005b6100bb6100fc366004610c95565b6104df565b6100ec61010f366004610d1d565b610616565b610127610122366004610d47565b6106fe565b6040517fffffffff0000000000000000000000000000000000000000000000000000000090911681526020016100c8565b6100bb610166366004610b5f565b610731565b60005461018b9073ffffffffffffffffffffffffffffffffffffffff1681565b60405173ffffffffffffffffffffffffffffffffffffffff90911681526020016100c8565b6101c36101be366004610db9565b6107ec565b6040519081526020016100c8565b60608167ffffffffffffffff8111156101ec576101ec610dfc565b604051908082528060200260200182016040528015610215578160200160208202803683370190505b5090508460005b8381101561032b578173ffffffffffffffffffffffffffffffffffffffff1663f7888aec86868481811061025257610252610e2b565b90506020020160208101906102679190610e5a565b6040517fffffffff0000000000000000000000000000000000000000000000000000000060e084901b16815273ffffffffffffffffffffffffffffffffffffffff91821660048201529089166024820152604401602060405180830381865afa1580156102d8573d6000803e3d6000fd5b505050506040513d601f19601f820116820180604052508101906102fc9190610e75565b83828151811061030e5761030e610e2b565b60209081029190910101528061032381610e8e565b91505061021c565b50505b949350505050565b60608167ffffffffffffffff81111561035157610351610dfc565b60405190808252806020026020018201604052801561037a578160200160208202803683370190505b50905060005b8281101561046857600084848381811061039c5761039c610e2b565b90506020020160208101906103b19190610e5a565b73ffffffffffffffffffffffffffffffffffffffff161461041f576103fc858585848181106103e2576103e2610e2b565b90506020020160208101906103f79190610e5a565b6107f9565b82828151811061040e5761040e610e2b565b602002602001018181525050610456565b8473ffffffffffffffffffffffffffffffffffffffff163182828151811061044957610449610e2b565b6020026020010181815250505b8061046081610e8e565b915050610380565b505b9392505050565b60005473ffffffffffffffffffffffffffffffffffffffff16331461049557600080fd5b6000805460405173ffffffffffffffffffffffffffffffffffffffff909116914780156108fc02929091818181858888f193505050501580156104dc573d6000803e3d6000fd5b50565b60608267ffffffffffffffff8111156104fa576104fa610dfc565b604051908082528060200260200182016040528015610523578160200160208202803683370190505b509050811561059e5760005b838110156105985761056988888888888681811061054f5761054f610e2b565b90506020020160208101906105649190610e5a565b610826565b82828151811061057b5761057b610e2b565b60209081029190910101528061059081610e8e565b91505061052f565b5061060c565b60005b8381101561060a576105db88888787858181106105c0576105c0610e2b565b90506020020160208101906105d59190610e5a565b89610826565b8282815181106105ed576105ed610e2b565b60209081029190910101528061060281610e8e565b9150506105a1565b505b9695505050505050565b60005473ffffffffffffffffffffffffffffffffffffffff16331461063a57600080fd5b73ffffffffffffffffffffffffffffffffffffffff8216158015906106f157506040517fa9059cbb0000000000000000000000000000000000000000000000000000000081523360048201526024810182905273ffffffffffffffffffffffffffffffffffffffff83169063a9059cbb906044016020604051808303816000875af11580156106cd573d6000803e3d6000fd5b505050506040513d601f19601f820116820180604052508101906106f19190610eee565b6106fa57600080fd5b5050565b60008282604051602001610713929190610f0b565b60405160208183030381529060405280519060200120905092915050565b60608167ffffffffffffffff81111561074c5761074c610dfc565b604051908082528060200260200182016040528015610775578160200160208202803683370190505b50905060005b828110156107e3576107b4868686868581811061079a5761079a610e2b565b90506020020160208101906107af9190610e5a565b610975565b8282815181106107c6576107c6610e2b565b6020908102919091010152806107db81610e8e565b91505061077b565b50949350505050565b600061032e8484846109a3565b600061046a827f70a0823100000000000000000000000000000000000000000000000000000000856109a3565b6000843b1561096d5760405173ffffffffffffffffffffffffffffffffffffffff8481166024830152838116604483015260009182918816908790606401604080517fffffffffffffffffffffffffffffffffffffffffffffffffffffffffffffffe08184030181529181526020820180517bffffffffffffffffffffffffffffffffffffffffffffffffffffffff167fffffffff000000000000000000000000000000000000000000000000000000009094169390931790925290516108ed9190610f1b565b600060405180830381855afa9150503d8060008114610928576040519150601f19603f3d011682016040523d82523d6000602084013e61092d565b606091505b5091509150818015610940575080516020145b1561096257808060200190518101906109599190610e75565b9250505061032e565b60009250505061032e565b50600061032e565b600061032e827fdd62ed3e000000000000000000000000000000000000000000000000000000008587610826565b6000833b15610ae25760405173ffffffffffffffffffffffffffffffffffffffff838116602483015260009182918716908690604401604080517fffffffffffffffffffffffffffffffffffffffffffffffffffffffffffffffe08184030181529181526020820180517bffffffffffffffffffffffffffffffffffffffffffffffffffffffff167fffffffff00000000000000000000000000000000000000000000000000000000909416939093179092529051610a629190610f1b565b600060405180830381855afa9150503d8060008114610a9d576040519150601f19603f3d011682016040523d82523d6000602084013e610aa2565b606091505b5091509150818015610ab5575080516020145b15610ad75780806020019051810190610ace9190610e75565b9250505061046a565b60009250505061046a565b50600061046a565b803573ffffffffffffffffffffffffffffffffffffffff81168114610b0e57600080fd5b919050565b60008083601f840112610b2557600080fd5b50813567ffffffffffffffff811115610b3d57600080fd5b6020830191508360208260051b8501011115610b5857600080fd5b9250929050565b60008060008060608587031215610b7557600080fd5b610b7e85610aea565b9350610b8c60208601610aea565b9250604085013567ffffffffffffffff811115610ba857600080fd5b610bb487828801610b13565b95989497509550505050565b6020808252825182820181905260009190848201906040850190845b81811015610bf857835183529284019291840191600101610bdc565b50909695505050505050565b600080600060408486031215610c1957600080fd5b610c2284610aea565b9250602084013567ffffffffffffffff811115610c3e57600080fd5b610c4a86828701610b13565b9497909650939450505050565b80357fffffffff0000000000000000000000000000000000000000000000000000000081168114610b0e57600080fd5b80151581146104dc57600080fd5b60008060008060008060a08789031215610cae57600080fd5b610cb787610aea565b9550610cc560208801610c57565b9450610cd360408801610aea565b9350606087013567ffffffffffffffff811115610cef57600080fd5b610cfb89828a01610b13565b9094509250506080870135610d0f81610c87565b809150509295509295509295565b60008060408385031215610d3057600080fd5b610d3983610aea565b946020939093013593505050565b60008060208385031215610d5a57600080fd5b823567ffffffffffffffff80821115610d7257600080fd5b818501915085601f830112610d8657600080fd5b813581811115610d9557600080fd5b866020828501011115610da757600080fd5b60209290920196919550909350505050565b600080600060608486031215610dce57600080fd5b610dd784610aea565b9250610de560208501610c57565b9150610df360408501610aea565b90509250925092565b7f4e487b7100000000000000000000000000000000000000000000000000000000600052604160045260246000fd5b7f4e487b7100000000000000000000000000000000000000000000000000000000600052603260045260246000fd5b600060208284031215610e6c57600080fd5b61046a82610aea565b600060208284031215610e8757600080fd5b5051919050565b60007fffffffffffffffffffffffffffffffffffffffffffffffffffffffffffffffff821415610ee7577f4e487b7100000000000000000000000000000000000000000000000000000000600052601160045260246000fd5b5060010190565b600060208284031215610f0057600080fd5b815161046a81610c87565b8183823760009101908152919050565b6000825160005b81811015610f3c5760208186018101518583015201610f22565b81811115610f4b576000828501525b50919091019291505056fea264697066735822122075b9c4c9cc96948936e3d1c779d11b3bb3467c97603f6f0a86b0f9d59a2b52e664736f6c634300080a0033",
  "linkReferences": {},
  "deployedLinkReferences": {}
}