{
  "_format": "hh-sol-artifact-1",
  "contractName": "EulerGeneralView",
  "sourceName": "contracts/views/EulerGeneralView.sol",
  "abi": [
    {
      "inputs": [
        {
          "internalType": "bytes32",
          "name": "moduleGitCommit_",
          "type": "bytes32"
        }
      ],
      "stateMutability": "nonpayable",
      "type": "constructor"
    },
    {
      "inputs": [
        {
          "internalType": "uint256",
          "name": "borrowSPY",
          "type": "uint256"
        },
        {
          "internalType": "uint256",
          "name": "totalBorrows",
          "type": "uint256"
        },
        {
          "internalType": "uint256",
          "name": "totalBalancesUnderlying",
          "type": "uint256"
        },
        {
          "internalType": "uint32",
          "name": "reserveFee",
          "type": "uint32"
        }
      ],
      "name": "computeAPYs",
      "outputs": [
        {
          "internalType": "uint256",
          "name": "borrowAPY",
          "type": "uint256"
        },
        {
          "internalType": "uint256",
          "name": "supplyAPY",
          "type": "uint256"
        }
      ],
      "stateMutability": "pure",
      "type": "function"
    },
    {
      "inputs": [
        {
          "components": [
            {
              "internalType": "address",
              "name": "eulerContract",
              "type": "address"
            },
            {
              "internalType": "address",
              "name": "account",
              "type": "address"
            },
            {
              "internalType": "address[]",
              "name": "markets",
              "type": "address[]"
            }
          ],
          "internalType": "struct EulerGeneralView.Query",
          "name": "q",
          "type": "tuple"
        }
      ],
      "name": "doQuery",
      "outputs": [
        {
          "components": [
            {
              "internalType": "uint256",
              "name": "timestamp",
              "type": "uint256"
            },
            {
              "internalType": "uint256",
              "name": "blockNumber",
              "type": "uint256"
            },
            {
              "components": [
                {
                  "internalType": "address",
                  "name": "underlying",
                  "type": "address"
                },
                {
                  "internalType": "string",
                  "name": "name",
                  "type": "string"
                },
                {
                  "internalType": "string",
                  "name": "symbol",
                  "type": "string"
                },
                {
                  "internalType": "uint8",
                  "name": "decimals",
                  "type": "uint8"
                },
                {
                  "internalType": "address",
                  "name": "eTokenAddr",
                  "type": "address"
                },
                {
                  "internalType": "address",
                  "name": "dTokenAddr",
                  "type": "address"
                },
                {
                  "internalType": "address",
                  "name": "pTokenAddr",
                  "type": "address"
                },
                {
                  "components": [
                    {
                      "internalType": "address",
                      "name": "eTokenAddress",
                      "type": "address"
                    },
                    {
                      "internalType": "bool",
                      "name": "borrowIsolated",
                      "type": "bool"
                    },
                    {
                      "internalType": "uint32",
                      "name": "collateralFactor",
                      "type": "uint32"
                    },
                    {
                      "internalType": "uint32",
                      "name": "borrowFactor",
                      "type": "uint32"
                    },
                    {
                      "internalType": "uint24",
                      "name": "twapWindow",
                      "type": "uint24"
                    }
                  ],
                  "internalType": "struct Storage.AssetConfig",
                  "name": "config",
                  "type": "tuple"
                },
                {
                  "internalType": "uint256",
                  "name": "poolSize",
                  "type": "uint256"
                },
                {
                  "internalType": "uint256",
                  "name": "totalBalances",
                  "type": "uint256"
                },
                {
                  "internalType": "uint256",
                  "name": "totalBorrows",
                  "type": "uint256"
                },
                {
                  "internalType": "uint256",
                  "name": "reserveBalance",
                  "type": "uint256"
                },
                {
                  "internalType": "uint32",
                  "name": "reserveFee",
                  "type": "uint32"
                },
                {
                  "internalType": "uint256",
                  "name": "borrowAPY",
                  "type": "uint256"
                },
                {
                  "internalType": "uint256",
                  "name": "supplyAPY",
                  "type": "uint256"
                },
                {
                  "internalType": "uint256",
                  "name": "twap",
                  "type": "uint256"
                },
                {
                  "internalType": "uint256",
                  "name": "twapPeriod",
                  "type": "uint256"
                },
                {
                  "internalType": "uint256",
                  "name": "currPrice",
                  "type": "uint256"
                },
                {
                  "internalType": "uint16",
                  "name": "pricingType",
                  "type": "uint16"
                },
                {
                  "internalType": "uint32",
                  "name": "pricingParameters",
                  "type": "uint32"
                },
                {
                  "internalType": "address",
                  "name": "pricingForwarded",
                  "type": "address"
                },
                {
                  "internalType": "uint256",
                  "name": "underlyingBalance",
                  "type": "uint256"
                },
                {
                  "internalType": "uint256",
                  "name": "eulerAllowance",
                  "type": "uint256"
                },
                {
                  "internalType": "uint256",
                  "name": "eTokenBalance",
                  "type": "uint256"
                },
                {
                  "internalType": "uint256",
                  "name": "eTokenBalanceUnderlying",
                  "type": "uint256"
                },
                {
                  "internalType": "uint256",
                  "name": "dTokenBalance",
                  "type": "uint256"
                },
                {
                  "components": [
                    {
                      "internalType": "uint256",
                      "name": "collateralValue",
                      "type": "uint256"
                    },
                    {
                      "internalType": "uint256",
                      "name": "liabilityValue",
                      "type": "uint256"
                    },
                    {
                      "internalType": "uint256",
                      "name": "numBorrows",
                      "type": "uint256"
                    },
                    {
                      "internalType": "bool",
                      "name": "borrowIsolated",
                      "type": "bool"
                    },
                    {
                      "internalType": "uint256",
                      "name": "overrideCollateralValue",
                      "type": "uint256"
                    }
                  ],
                  "internalType": "struct IRiskManager.LiquidityStatus",
                  "name": "liquidityStatus",
                  "type": "tuple"
                },
                {
                  "internalType": "address[]",
                  "name": "overrideLiabilities",
                  "type": "address[]"
                },
                {
                  "internalType": "address[]",
                  "name": "overrideCollaterals",
                  "type": "address[]"
                },
                {
                  "components": [
                    {
                      "internalType": "bool",
                      "name": "enabled",
                      "type": "bool"
                    },
                    {
                      "internalType": "uint32",
                      "name": "collateralFactor",
                      "type": "uint32"
                    }
                  ],
                  "internalType": "struct Storage.OverrideConfig[]",
                  "name": "overrideLiabilitiesConfig",
                  "type": "tuple[]"
                },
                {
                  "components": [
                    {
                      "internalType": "bool",
                      "name": "enabled",
                      "type": "bool"
                    },
                    {
                      "internalType": "uint32",
                      "name": "collateralFactor",
                      "type": "uint32"
                    }
                  ],
                  "internalType": "struct Storage.OverrideConfig[]",
                  "name": "overrideCollateralsConfig",
                  "type": "tuple[]"
                }
              ],
              "internalType": "struct EulerGeneralView.ResponseMarket[]",
              "name": "markets",
              "type": "tuple[]"
            },
            {
              "internalType": "address[]",
              "name": "enteredMarkets",
              "type": "address[]"
            }
          ],
          "internalType": "struct EulerGeneralView.Response",
          "name": "r",
          "type": "tuple"
        }
      ],
      "stateMutability": "view",
      "type": "function"
    },
    {
      "inputs": [
        {
          "internalType": "address",
          "name": "eulerContract",
          "type": "address"
        },
        {
          "internalType": "address[]",
          "name": "addrs",
          "type": "address[]"
        }
      ],
      "name": "doQueryAccountLiquidity",
      "outputs": [
        {
          "components": [
            {
              "components": [
                {
                  "internalType": "address",
                  "name": "underlying",
                  "type": "address"
                },
                {
                  "components": [
                    {
                      "internalType": "uint256",
                      "name": "collateralValue",
                      "type": "uint256"
                    },
                    {
                      "internalType": "uint256",
                      "name": "liabilityValue",
                      "type": "uint256"
                    },
                    {
                      "internalType": "uint256",
                      "name": "numBorrows",
                      "type": "uint256"
                    },
                    {
                      "internalType": "bool",
                      "name": "borrowIsolated",
                      "type": "bool"
                    },
                    {
                      "internalType": "uint256",
                      "name": "overrideCollateralValue",
                      "type": "uint256"
                    }
                  ],
                  "internalType": "struct IRiskManager.LiquidityStatus",
                  "name": "status",
                  "type": "tuple"
                }
              ],
              "internalType": "struct IRiskManager.AssetLiquidity[]",
              "name": "markets",
              "type": "tuple[]"
            }
          ],
          "internalType": "struct EulerGeneralView.ResponseAccountLiquidity[]",
          "name": "r",
          "type": "tuple[]"
        }
      ],
      "stateMutability": "view",
      "type": "function"
    },
    {
      "inputs": [
        {
          "components": [
            {
              "internalType": "address",
              "name": "eulerContract",
              "type": "address"
            },
            {
              "internalType": "address",
              "name": "account",
              "type": "address"
            },
            {
              "internalType": "address[]",
              "name": "markets",
              "type": "address[]"
            }
          ],
          "internalType": "struct EulerGeneralView.Query[]",
          "name": "qs",
          "type": "tuple[]"
        }
      ],
      "name": "doQueryBatch",
      "outputs": [
        {
          "components": [
            {
              "internalType": "uint256",
              "name": "timestamp",
              "type": "uint256"
            },
            {
              "internalType": "uint256",
              "name": "blockNumber",
              "type": "uint256"
            },
            {
              "components": [
                {
                  "internalType": "address",
                  "name": "underlying",
                  "type": "address"
                },
                {
                  "internalType": "string",
                  "name": "name",
                  "type": "string"
                },
                {
                  "internalType": "string",
                  "name": "symbol",
                  "type": "string"
                },
                {
                  "internalType": "uint8",
                  "name": "decimals",
                  "type": "uint8"
                },
                {
                  "internalType": "address",
                  "name": "eTokenAddr",
                  "type": "address"
                },
                {
                  "internalType": "address",
                  "name": "dTokenAddr",
                  "type": "address"
                },
                {
                  "internalType": "address",
                  "name": "pTokenAddr",
                  "type": "address"
                },
                {
                  "components": [
                    {
                      "internalType": "address",
                      "name": "eTokenAddress",
                      "type": "address"
                    },
                    {
                      "internalType": "bool",
                      "name": "borrowIsolated",
                      "type": "bool"
                    },
                    {
                      "internalType": "uint32",
                      "name": "collateralFactor",
                      "type": "uint32"
                    },
                    {
                      "internalType": "uint32",
                      "name": "borrowFactor",
                      "type": "uint32"
                    },
                    {
                      "internalType": "uint24",
                      "name": "twapWindow",
                      "type": "uint24"
                    }
                  ],
                  "internalType": "struct Storage.AssetConfig",
                  "name": "config",
                  "type": "tuple"
                },
                {
                  "internalType": "uint256",
                  "name": "poolSize",
                  "type": "uint256"
                },
                {
                  "internalType": "uint256",
                  "name": "totalBalances",
                  "type": "uint256"
                },
                {
                  "internalType": "uint256",
                  "name": "totalBorrows",
                  "type": "uint256"
                },
                {
                  "internalType": "uint256",
                  "name": "reserveBalance",
                  "type": "uint256"
                },
                {
                  "internalType": "uint32",
                  "name": "reserveFee",
                  "type": "uint32"
                },
                {
                  "internalType": "uint256",
                  "name": "borrowAPY",
                  "type": "uint256"
                },
                {
                  "internalType": "uint256",
                  "name": "supplyAPY",
                  "type": "uint256"
                },
                {
                  "internalType": "uint256",
                  "name": "twap",
                  "type": "uint256"
                },
                {
                  "internalType": "uint256",
                  "name": "twapPeriod",
                  "type": "uint256"
                },
                {
                  "internalType": "uint256",
                  "name": "currPrice",
                  "type": "uint256"
                },
                {
                  "internalType": "uint16",
                  "name": "pricingType",
                  "type": "uint16"
                },
                {
                  "internalType": "uint32",
                  "name": "pricingParameters",
                  "type": "uint32"
                },
                {
                  "internalType": "address",
                  "name": "pricingForwarded",
                  "type": "address"
                },
                {
                  "internalType": "uint256",
                  "name": "underlyingBalance",
                  "type": "uint256"
                },
                {
                  "internalType": "uint256",
                  "name": "eulerAllowance",
                  "type": "uint256"
                },
                {
                  "internalType": "uint256",
                  "name": "eTokenBalance",
                  "type": "uint256"
                },
                {
                  "internalType": "uint256",
                  "name": "eTokenBalanceUnderlying",
                  "type": "uint256"
                },
                {
                  "internalType": "uint256",
                  "name": "dTokenBalance",
                  "type": "uint256"
                },
                {
                  "components": [
                    {
                      "internalType": "uint256",
                      "name": "collateralValue",
                      "type": "uint256"
                    },
                    {
                      "internalType": "uint256",
                      "name": "liabilityValue",
                      "type": "uint256"
                    },
                    {
                      "internalType": "uint256",
                      "name": "numBorrows",
                      "type": "uint256"
                    },
                    {
                      "internalType": "bool",
                      "name": "borrowIsolated",
                      "type": "bool"
                    },
                    {
                      "internalType": "uint256",
                      "name": "overrideCollateralValue",
                      "type": "uint256"
                    }
                  ],
                  "internalType": "struct IRiskManager.LiquidityStatus",
                  "name": "liquidityStatus",
                  "type": "tuple"
                },
                {
                  "internalType": "address[]",
                  "name": "overrideLiabilities",
                  "type": "address[]"
                },
                {
                  "internalType": "address[]",
                  "name": "overrideCollaterals",
                  "type": "address[]"
                },
                {
                  "components": [
                    {
                      "internalType": "bool",
                      "name": "enabled",
                      "type": "bool"
                    },
                    {
                      "internalType": "uint32",
                      "name": "collateralFactor",
                      "type": "uint32"
                    }
                  ],
                  "internalType": "struct Storage.OverrideConfig[]",
                  "name": "overrideLiabilitiesConfig",
                  "type": "tuple[]"
                },
                {
                  "components": [
                    {
                      "internalType": "bool",
                      "name": "enabled",
                      "type": "bool"
                    },
                    {
                      "internalType": "uint32",
                      "name": "collateralFactor",
                      "type": "uint32"
                    }
                  ],
                  "internalType": "struct Storage.OverrideConfig[]",
                  "name": "overrideCollateralsConfig",
                  "type": "tuple[]"
                }
              ],
              "internalType": "struct EulerGeneralView.ResponseMarket[]",
              "name": "markets",
              "type": "tuple[]"
            },
            {
              "internalType": "address[]",
              "name": "enteredMarkets",
              "type": "address[]"
            }
          ],
          "internalType": "struct EulerGeneralView.Response[]",
          "name": "r",
          "type": "tuple[]"
        }
      ],
      "stateMutability": "view",
      "type": "function"
    },
    {
      "inputs": [
        {
          "components": [
            {
              "internalType": "address",
              "name": "eulerContract",
              "type": "address"
            },
            {
              "internalType": "address",
              "name": "underlying",
              "type": "address"
            }
          ],
          "internalType": "struct EulerGeneralView.QueryIRM",
          "name": "q",
          "type": "tuple"
        }
      ],
      "name": "doQueryIRM",
      "outputs": [
        {
          "components": [
            {
              "internalType": "uint256",
              "name": "kink",
              "type": "uint256"
            },
            {
              "internalType": "uint256",
              "name": "baseAPY",
              "type": "uint256"
            },
            {
              "internalType": "uint256",
              "name": "kinkAPY",
              "type": "uint256"
            },
            {
              "internalType": "uint256",
              "name": "maxAPY",
              "type": "uint256"
            },
            {
              "internalType": "uint256",
              "name": "baseSupplyAPY",
              "type": "uint256"
            },
            {
              "internalType": "uint256",
              "name": "kinkSupplyAPY",
              "type": "uint256"
            },
            {
              "internalType": "uint256",
              "name": "maxSupplyAPY",
              "type": "uint256"
            }
          ],
          "internalType": "struct EulerGeneralView.ResponseIRM",
          "name": "r",
          "type": "tuple"
        }
      ],
      "stateMutability": "view",
      "type": "function"
    },
    {
      "inputs": [],
      "name": "moduleGitCommit",
      "outputs": [
        {
          "internalType": "bytes32",
          "name": "",
          "type": "bytes32"
        }
      ],
      "stateMutability": "view",
      "type": "function"
    }
  ],
  "bytecode": "0x60a06040523480156200001157600080fd5b50604051620033543803806200335483398101604081905262000034916200003d565b60805262000057565b6000602082840312156200005057600080fd5b5051919050565b6080516132e162000073600039600061012e01526132e16000f3fe608060405234801561001057600080fd5b50600436106100725760003560e01c806369a92ea31161005057806369a92ea314610129578063854c87271461015e5780638f863b2e1461017e57600080fd5b8063340d059a146100775780633d77bf7f146100a05780634c0cf6f714610109575b600080fd5b61008a61008536600461248d565b6101a6565b6040516100979190612a10565b60405180910390f35b6100b36100ae366004612a90565b610283565b6040516100979190600060e082019050825182526020830151602083015260408301516040830152606083015160608301526080830151608083015260a083015160a083015260c083015160c083015292915050565b61011c610117366004612ad1565b61078f565b6040516100979190612b21565b6101507f000000000000000000000000000000000000000000000000000000000000000081565b604051908152602001610097565b61017161016c366004612c2c565b610999565b6040516100979190612c69565b61019161018c366004612c95565b610e7a565b60408051928352602083019190915201610097565b6060815167ffffffffffffffff8111156101c2576101c2612276565b60405190808252806020026020018201604052801561021e57816020015b61020b6040518060800160405280600081526020016000815260200160608152602001606081525090565b8152602001906001900390816101e05790505b50905060005b825181101561027d5761024f83828151811061024257610242612cd6565b6020026020010151610999565b82828151811061026157610261612cd6565b60200260200101819052508061027690612d34565b9050610224565b50919050565b6102c36040518060e00160405280600081526020016000815260200160008152602001600081526020016000815260200160008152602001600081525090565b81516040517f734c938f0000000000000000000000000000000000000000000000000000000081526002600482015260009073ffffffffffffffffffffffffffffffffffffffff83169063734c938f90602401602060405180830381865afa158015610333573d6000803e3d6000fd5b505050506040513d601f19601f820116820180604052508101906103579190612d6d565b60208501516040517fb409dd9b00000000000000000000000000000000000000000000000000000000815273ffffffffffffffffffffffffffffffffffffffff91821660048201529192506000919083169063b409dd9b90602401602060405180830381865afa1580156103cf573d6000803e3d6000fd5b505050506040513d601f19601f820116820180604052508101906103f39190612d8a565b6040517fcab65f010000000000000000000000000000000000000000000000000000000081526004810182905290915060009073ffffffffffffffffffffffffffffffffffffffff85169063cab65f0190602401602060405180830381865afa158015610464573d6000803e3d6000fd5b505050506040513d601f19601f820116820180604052508101906104889190612d6d565b9050600081905060008173ffffffffffffffffffffffffffffffffffffffff1663fd2da3396040518163ffffffff1660e01b8152600401602060405180830381865afa1580156104dc573d6000803e3d6000fd5b505050506040513d601f19601f820116820180604052508101906105009190612d8a565b80885260208901516040517fb74b1ed500000000000000000000000000000000000000000000000000000000815273ffffffffffffffffffffffffffffffffffffffff91821660048201529192506000919087169063b74b1ed590602401602060405180830381865afa15801561057b573d6000803e3d6000fd5b505050506040513d601f19601f8201168201806040525081019061059f9190612da3565b905060008373ffffffffffffffffffffffffffffffffffffffff16631f68f20a6040518163ffffffff1660e01b8152600401602060405180830381865afa1580156105ee573d6000803e3d6000fd5b505050506040513d601f19601f820116820180604052508101906106129190612d8a565b905060008473ffffffffffffffffffffffffffffffffffffffff1663a62b75a86040518163ffffffff1660e01b8152600401602060405180830381865afa158015610661573d6000803e3d6000fd5b505050506040513d601f19601f820116820180604052508101906106859190612d8a565b61068f9085612dc0565b6106999083612dfd565b905060008573ffffffffffffffffffffffffffffffffffffffff1663d0134cb76040518163ffffffff1660e01b8152600401602060405180830381865afa1580156106e8573d6000803e3d6000fd5b505050506040513d601f19601f8201168201806040525081019061070c9190612d8a565b61071a8663ffffffff612e15565b6107249190612dc0565b61072e9083612dfd565b905061074183600063ffffffff87610e7a565b60808d015260208c015261075b828663ffffffff87610e7a565b60a08d015260408c01526107758163ffffffff8087610e7a565b60c08d015260608c015250989a9950505050505050505050565b6040517f734c938f00000000000000000000000000000000000000000000000000000000815260056004820152606090839060009073ffffffffffffffffffffffffffffffffffffffff83169063734c938f90602401602060405180830381865afa158015610802573d6000803e3d6000fd5b505050506040513d601f19601f820116820180604052508101906108269190612d6d565b9050835167ffffffffffffffff81111561084257610842612276565b60405190808252806020026020018201604052801561088257816020015b6040805160208101909152606081528152602001906001900390816108605790505b50925060005b8451811015610990578173ffffffffffffffffffffffffffffffffffffffff1663dec82caf8683815181106108bf576108bf612cd6565b60200260200101516040518263ffffffff1660e01b81526004016108ff919073ffffffffffffffffffffffffffffffffffffffff91909116815260200190565b600060405180830381865afa15801561091c573d6000803e3d6000fd5b505050506040513d6000823e601f3d9081017fffffffffffffffffffffffffffffffffffffffffffffffffffffffffffffffe01682016040526109629190810190612e41565b84828151811061097457610974612cd6565b60209081029190910101515261098981612d34565b9050610888565b50505092915050565b6109c46040518060800160405280600081526020016000815260200160608152602001606081525090565b42815243602082015281516040517f734c938f0000000000000000000000000000000000000000000000000000000081526002600482015260009073ffffffffffffffffffffffffffffffffffffffff83169063734c938f90602401602060405180830381865afa158015610a3d573d6000803e3d6000fd5b505050506040513d601f19601f82011682018060405250810190610a619190612d6d565b6040517f734c938f0000000000000000000000000000000000000000000000000000000081526005600482015290915060009073ffffffffffffffffffffffffffffffffffffffff84169063734c938f90602401602060405180830381865afa158015610ad2573d6000803e3d6000fd5b505050506040513d601f19601f82011682018060405250810190610af69190612d6d565b602086015190915060609073ffffffffffffffffffffffffffffffffffffffff1615610bd75760208601516040517fdec82caf00000000000000000000000000000000000000000000000000000000815273ffffffffffffffffffffffffffffffffffffffff91821660048201529083169063dec82caf90602401600060405180830381865afa158015610b8e573d6000803e3d6000fd5b505050506040513d6000823e601f3d9081017fffffffffffffffffffffffffffffffffffffffffffffffffffffffffffffffe0168201604052610bd49190810190612e41565b90505b8560400151518151610be99190612dfd565b67ffffffffffffffff811115610c0157610c01612276565b604051908082528060200260200182016040528015610c3a57816020015b610c27612114565b815260200190600190039081610c1f5790505b50604086015260005b8151811015610cea57600086604001518281518110610c6457610c64612cd6565b60200260200101519050828281518110610c8057610c80612cd6565b60209081029190910101515173ffffffffffffffffffffffffffffffffffffffff1681528251839083908110610cb857610cb8612cd6565b602002602001015160200151816103400181905250610cd988828787610f3c565b50610ce381612d34565b9050610c43565b5080515b8660400151518251610d009190612dfd565b811015610d92576000825182610d169190612e15565b9050600087604001518381518110610d3057610d30612cd6565b6020026020010151905088604001518281518110610d5057610d50612cd6565b602090810291909101015173ffffffffffffffffffffffffffffffffffffffff168152610d7f89828888610f3c565b505080610d8b90612d34565b9050610cee565b50602086015173ffffffffffffffffffffffffffffffffffffffff1615610e715760208601516040517f8ccb720b00000000000000000000000000000000000000000000000000000000815273ffffffffffffffffffffffffffffffffffffffff918216600482015290841690638ccb720b90602401600060405180830381865afa158015610e25573d6000803e3d6000fd5b505050506040513d6000823e601f3d9081017fffffffffffffffffffffffffffffffffffffffffffffffffffffffffffffffe0168201604052610e6b9190810190612f6f565b60608601525b50505050919050565b6000806b033b2e3c9fd0803ce8000000610eae610e978883612dfd565b6301e185586b033b2e3c9fd0803ce8000000611f21565b610eb89190612e15565b915060008415610edc5784610ecd8789612dc0565b610ed79190613009565b610edf565b60005b905063ee6b2800610ef663ffffffff861682612e15565b610f009083612dc0565b610f0a9190613009565b90506b033b2e3c9fd0803ce8000000610f26610e978383612dfd565b610f309190612e15565b91505094509492505050565b8251610f68907f06fdde0300000000000000000000000000000000000000000000000000000000611fdf565b60208401528251610f99907f95d89b4100000000000000000000000000000000000000000000000000000000611fdf565b8360400181905250826000015173ffffffffffffffffffffffffffffffffffffffff1663313ce5676040518163ffffffff1660e01b8152600401602060405180830381865afa158015610ff0573d6000803e3d6000fd5b505050506040513d601f19601f820116820180604052508101906110149190613044565b60ff16606084015282516040517f8948874900000000000000000000000000000000000000000000000000000000815273ffffffffffffffffffffffffffffffffffffffff918216600482015290831690638948874990602401602060405180830381865afa15801561108b573d6000803e3d6000fd5b505050506040513d601f19601f820116820180604052508101906110af9190612d6d565b73ffffffffffffffffffffffffffffffffffffffff16608084018190526110d557611f1b565b60808301516040517f6b5e360600000000000000000000000000000000000000000000000000000000815273ffffffffffffffffffffffffffffffffffffffff918216600482015290831690636b5e360690602401602060405180830381865afa158015611147573d6000803e3d6000fd5b505050506040513d601f19601f8201168201806040525081019061116b9190612d6d565b73ffffffffffffffffffffffffffffffffffffffff90811660a085015283516040517ffd7948d400000000000000000000000000000000000000000000000000000000815290821660048201529083169063fd7948d490602401602060405180830381865afa1580156111e2573d6000803e3d6000fd5b505050506040513d601f19601f820116820180604052508101906112069190612d6d565b73ffffffffffffffffffffffffffffffffffffffff90811660c085015283516040517f4e9cfac20000000000000000000000000000000000000000000000000000000081529082166004820152600091841690634e9cfac29060240160a060405180830381865afa15801561127f573d6000803e3d6000fd5b505050506040513d601f19601f820116820180604052508101906112a39190613067565b60e085015250825184516040517f70a0823100000000000000000000000000000000000000000000000000000000815273ffffffffffffffffffffffffffffffffffffffff91821660048201529116906370a0823190602401602060405180830381865afa158015611319573d6000803e3d6000fd5b505050506040513d601f19601f8201168201806040525081019061133d9190612d8a565b83610100018181525050826080015173ffffffffffffffffffffffffffffffffffffffff1663fea61faa6040518163ffffffff1660e01b8152600401602060405180830381865afa158015611396573d6000803e3d6000fd5b505050506040513d601f19601f820116820180604052508101906113ba9190612d8a565b836101200181815250508260a0015173ffffffffffffffffffffffffffffffffffffffff166318160ddd6040518163ffffffff1660e01b8152600401602060405180830381865afa158015611413573d6000803e3d6000fd5b505050506040513d601f19601f820116820180604052508101906114379190612d8a565b83610140018181525050826080015173ffffffffffffffffffffffffffffffffffffffff1663e73277d06040518163ffffffff1660e01b8152600401602060405180830381865afa158015611490573d6000803e3d6000fd5b505050506040513d601f19601f820116820180604052508101906114b49190612d8a565b61016084015282516040517fb74b1ed500000000000000000000000000000000000000000000000000000000815273ffffffffffffffffffffffffffffffffffffffff91821660048201529083169063b74b1ed590602401602060405180830381865afa158015611529573d6000803e3d6000fd5b505050506040513d601f19601f8201168201806040525081019061154d9190612da3565b63ffffffff1661018084015282516040517f7c2c69c000000000000000000000000000000000000000000000000000000000815273ffffffffffffffffffffffffffffffffffffffff9182166004820152600091841690637c2c69c090602401602060405180830381865afa1580156115ca573d6000803e3d6000fd5b505050506040513d601f19601f820116820180604052508101906115ee9190613105565b600b0b905061160e81856101400151866101200151876101800151610e7a565b6101c08601526101a08501525082516040517f9693fa6b00000000000000000000000000000000000000000000000000000000815273ffffffffffffffffffffffffffffffffffffffff918216600482015290821690639693fa6b90602401606060405180830381865afa15801561168a573d6000803e3d6000fd5b505050506040513d601f19601f820116820180604052508101906116ae9190613128565b6102208601526102008501526101e084015282516040517f546422d600000000000000000000000000000000000000000000000000000000815273ffffffffffffffffffffffffffffffffffffffff91821660048201529083169063546422d690602401606060405180830381865afa15801561172f573d6000803e3d6000fd5b505050506040513d601f19601f820116820180604052508101906117539190613156565b73ffffffffffffffffffffffffffffffffffffffff90811661028087015263ffffffff90911661026086015261ffff90911661024085015260208501511661179a57611f1b565b825160208501516040517f70a0823100000000000000000000000000000000000000000000000000000000815273ffffffffffffffffffffffffffffffffffffffff91821660048201529116906370a0823190602401602060405180830381865afa15801561180d573d6000803e3d6000fd5b505050506040513d601f19601f820116820180604052508101906118319190612d8a565b6102a0840152608083015160208501516040517f70a0823100000000000000000000000000000000000000000000000000000000815273ffffffffffffffffffffffffffffffffffffffff91821660048201529116906370a0823190602401602060405180830381865afa1580156118ad573d6000803e3d6000fd5b505050506040513d601f19601f820116820180604052508101906118d19190612d8a565b6102e0840152608083015160208501516040517f3af9e66900000000000000000000000000000000000000000000000000000000815273ffffffffffffffffffffffffffffffffffffffff9182166004820152911690633af9e66990602401602060405180830381865afa15801561194d573d6000803e3d6000fd5b505050506040513d601f19601f820116820180604052508101906119719190612d8a565b61030084015260a083015160208501516040517f70a0823100000000000000000000000000000000000000000000000000000000815273ffffffffffffffffffffffffffffffffffffffff91821660048201529116906370a0823190602401602060405180830381865afa1580156119ed573d6000803e3d6000fd5b505050506040513d601f19601f82011682018060405250810190611a119190612d8a565b6103208401528251602085015185516040517fdd62ed3e00000000000000000000000000000000000000000000000000000000815273ffffffffffffffffffffffffffffffffffffffff9283166004820152908216602482015291169063dd62ed3e90604401602060405180830381865afa158015611a94573d6000803e3d6000fd5b505050506040513d601f19601f82011682018060405250810190611ab89190612d8a565b6102c084015282516040517fc07c155800000000000000000000000000000000000000000000000000000000815273ffffffffffffffffffffffffffffffffffffffff918216600482015260009184169063c07c155890602401600060405180830381865afa158015611b2f573d6000803e3d6000fd5b505050506040513d6000823e601f3d9081017fffffffffffffffffffffffffffffffffffffffffffffffffffffffffffffffe0168201604052611b759190810190612f6f565b84610380018190529050805167ffffffffffffffff811115611b9957611b99612276565b604051908082528060200260200182016040528015611bde57816020015b6040805180820190915260008082526020820152815260200190600190039081611bb75790505b506103c085015260005b8151811015611ce0578373ffffffffffffffffffffffffffffffffffffffff1663e13e76e68660000151848481518110611c2457611c24612cd6565b60200260200101516040518363ffffffff1660e01b8152600401611c6b92919073ffffffffffffffffffffffffffffffffffffffff92831681529116602082015260400190565b6040805180830381865afa158015611c87573d6000803e3d6000fd5b505050506040513d601f19601f82011682018060405250810190611cab91906131aa565b856103c001518281518110611cc257611cc2612cd6565b60200260200101819052508080611cd890612d34565b915050611be8565b5083516040517f73ebea9200000000000000000000000000000000000000000000000000000000815273ffffffffffffffffffffffffffffffffffffffff91821660048201526000918516906373ebea9290602401600060405180830381865afa158015611d52573d6000803e3d6000fd5b505050506040513d6000823e601f3d9081017fffffffffffffffffffffffffffffffffffffffffffffffffffffffffffffffe0168201604052611d989190810190612f6f565b85610360018190529050805167ffffffffffffffff811115611dbc57611dbc612276565b604051908082528060200260200182016040528015611e0157816020015b6040805180820190915260008082526020820152815260200190600190039081611dda5790505b506103a086015260005b8151811015611f17578473ffffffffffffffffffffffffffffffffffffffff1663e13e76e6838381518110611e4257611e42612cd6565b602090810291909101015188516040517fffffffff0000000000000000000000000000000000000000000000000000000060e085901b16815273ffffffffffffffffffffffffffffffffffffffff9283166004820152911660248201526044016040805180830381865afa158015611ebe573d6000803e3d6000fd5b505050506040513d601f19601f82011682018060405250810190611ee291906131aa565b866103a001518281518110611ef957611ef9612cd6565b60200260200101819052508080611f0f90612d34565b915050611e0b565b5050505b50505050565b6000838015611fc157600184168015611f3c57859250611f40565b8392505b50600283046002850494505b8415611fbb578586028687820414611f6357600080fd5b81810181811015611f7357600080fd5b8590049650506001851615611fb0578583028387820414158715151615611f9957600080fd5b81810181811015611fa957600080fd5b8590049350505b600285049450611f4c565b50611fd7565b838015611fd15760009250611fd5565b8392505b505b509392505050565b60408051600481526024810182526020810180517bffffffffffffffffffffffffffffffffffffffffffffffffffffffff167fffffffff0000000000000000000000000000000000000000000000000000000085161790529051606091600091829173ffffffffffffffffffffffffffffffffffffffff87169161206391906131dd565b600060405180830381855afa9150503d806000811461209e576040519150601f19603f3d011682016040523d82523d6000602084013e6120a3565b606091505b5091509150816120c657604051806020016040528060008152509250505061210e565b80516020146120e857808060200190518101906120e391906131f9565b612109565b806040516020016120f991906131dd565b6040516020818303038152906040525b925050505b92915050565b604080516103e081018252600080825260606020808401829052838501829052818401839052608080850184905260a080860185905260c0860185905286519081018752848152918201849052948101839052908101829052928301529060e0820190815260200160008152602001600081526020016000815260200160008152602001600063ffffffff1681526020016000815260200160008152602001600081526020016000815260200160008152602001600061ffff168152602001600063ffffffff168152602001600073ffffffffffffffffffffffffffffffffffffffff16815260200160008152602001600081526020016000815260200160008152602001600081526020016122546040518060a00160405280600081526020016000815260200160008152602001600015158152602001600081525090565b8152602001606081526020016060815260200160608152602001606081525090565b7f4e487b7100000000000000000000000000000000000000000000000000000000600052604160045260246000fd5b6040805190810167ffffffffffffffff811182821017156122c8576122c8612276565b60405290565b60405160a0810167ffffffffffffffff811182821017156122c8576122c8612276565b604051601f82017fffffffffffffffffffffffffffffffffffffffffffffffffffffffffffffffe016810167ffffffffffffffff8111828210171561233857612338612276565b604052919050565b600067ffffffffffffffff82111561235a5761235a612276565b5060051b60200190565b73ffffffffffffffffffffffffffffffffffffffff8116811461238657600080fd5b50565b600082601f83011261239a57600080fd5b813560206123af6123aa83612340565b6122f1565b82815260059290921b840181019181810190868411156123ce57600080fd5b8286015b848110156123f25780356123e581612364565b83529183019183016123d2565b509695505050505050565b60006060828403121561240f57600080fd5b6040516060810167ffffffffffffffff828210818311171561243357612433612276565b816040528293508435915061244782612364565b90825260208401359061245982612364565b816020840152604085013591508082111561247357600080fd5b5061248085828601612389565b6040830152505092915050565b600060208083850312156124a057600080fd5b823567ffffffffffffffff808211156124b857600080fd5b818501915085601f8301126124cc57600080fd5b81356124da6123aa82612340565b81815260059190911b830184019084810190888311156124f957600080fd5b8585015b83811015612531578035858111156125155760008081fd5b6125238b89838a01016123fd565b8452509186019186016124fd565b5098975050505050505050565b60005b83811015612559578181015183820152602001612541565b83811115611f1b5750506000910152565b6000815180845261258281602086016020860161253e565b601f017fffffffffffffffffffffffffffffffffffffffffffffffffffffffffffffffe0169290920160200192915050565b600081518084526020808501945080840160005b838110156125fa57815173ffffffffffffffffffffffffffffffffffffffff16875295820195908201906001016125c8565b509495945050505050565b600081518084526020808501945080840160005b838110156125fa57815180511515885283015163ffffffff168388015260409096019590820190600101612619565b600060808084018351855260208085015181870152604080860151848289015283815180865260a09550858a019150858160051b8b0101858401935060005b828110156129e7578b82037fffffffffffffffffffffffffffffffffffffffffffffffffffffffffffffff600184528451805173ffffffffffffffffffffffffffffffffffffffff1683526104e088820151818a8601526126ea8286018261256a565b9150508782015184820389860152612702828261256a565b9150506060808301516127198287018260ff169052565b5050818b015173ffffffffffffffffffffffffffffffffffffffff8116858d015250818a015173ffffffffffffffffffffffffffffffffffffffff8116858c01525060c08281015173ffffffffffffffffffffffffffffffffffffffff811686830152505060e082810151805173ffffffffffffffffffffffffffffffffffffffff168683015260208101511515610100870152604081015163ffffffff908116610120880152606082015116610140870152608081015162ffffff166101608701525050610100820151610180818187015261012084015191506101a0828188015261014085015192506101c0838189015261016086015193506101e084818a01528387015194506102009350612838848a018663ffffffff169052565b918601516102208981019190915290860151610240808a019190915291860151610260808a019190915292860151610280808a0191909152908601516102a0808a0191909152918601519350916102c090612898828a018661ffff169052565b86015193506102e06128b18982018663ffffffff169052565b928601519350610300926128dc8985018673ffffffffffffffffffffffffffffffffffffffff169052565b918601516103208981019190915290860151610340808a019190915291860151610360808a019190915292860151610380808a0191909152908601516103a0808a0191909152918601519350916103c090612966828a0186805182526020810151602083015260408101516040830152606081015115156060830152608081015160808301525050565b8601518886036104608a0152935061297e85856125b4565b945082860151935087850361048089015261299985856125b4565b94508186015193508785036104a08901526129b48585612605565b9450808601519550505050508381036104c08501526129d38183612605565b968901969589019593505050600101612687565b5060608a015197508a810360608c0152612a0181896125b4565b9b9a5050505050505050505050565b6000602080830181845280855180835260408601915060408160051b870101925083870160005b82811015612a83577fffffffffffffffffffffffffffffffffffffffffffffffffffffffffffffffc0888603018452612a71858351612648565b94509285019290850190600101612a37565b5092979650505050505050565b600060408284031215612aa257600080fd5b612aaa6122a5565b8235612ab581612364565b81526020830135612ac581612364565b60208201529392505050565b60008060408385031215612ae457600080fd5b8235612aef81612364565b9150602083013567ffffffffffffffff811115612b0b57600080fd5b612b1785828601612389565b9150509250929050565b60006020808301818452808551808352604092508286019150828160051b8701018488016000805b84811015612c1d578984037fffffffffffffffffffffffffffffffffffffffffffffffffffffffffffffffc00186528251518885528051898601819052908901908390898701905b80831015612c08578351805173ffffffffffffffffffffffffffffffffffffffff1683528c0151612bf18d840182805182526020810151602083015260408101516040830152606081015115156060830152608081015160808301525050565b5060c0820191508b84019350600183019250612b91565b50978a01979550505091870191600101612b49565b50919998505050505050505050565b600060208284031215612c3e57600080fd5b813567ffffffffffffffff811115612c5557600080fd5b612c61848285016123fd565b949350505050565b602081526000612c7c6020830184612648565b9392505050565b63ffffffff8116811461238657600080fd5b60008060008060808587031215612cab57600080fd5b8435935060208501359250604085013591506060850135612ccb81612c83565b939692955090935050565b7f4e487b7100000000000000000000000000000000000000000000000000000000600052603260045260246000fd5b7f4e487b7100000000000000000000000000000000000000000000000000000000600052601160045260246000fd5b60007fffffffffffffffffffffffffffffffffffffffffffffffffffffffffffffffff821415612d6657612d66612d05565b5060010190565b600060208284031215612d7f57600080fd5b8151612c7c81612364565b600060208284031215612d9c57600080fd5b5051919050565b600060208284031215612db557600080fd5b8151612c7c81612c83565b6000817fffffffffffffffffffffffffffffffffffffffffffffffffffffffffffffffff0483118215151615612df857612df8612d05565b500290565b60008219821115612e1057612e10612d05565b500190565b600082821015612e2757612e27612d05565b500390565b80518015158114612e3c57600080fd5b919050565b60006020808385031215612e5457600080fd5b825167ffffffffffffffff811115612e6b57600080fd5b8301601f81018513612e7c57600080fd5b8051612e8a6123aa82612340565b81815260c09182028301840191848201919088841115612ea957600080fd5b938501935b83851015612f635784890381811215612ec75760008081fd5b612ecf6122a5565b8651612eda81612364565b815260a07fffffffffffffffffffffffffffffffffffffffffffffffffffffffffffffffe08301811315612f0e5760008081fd5b612f166122ce565b92508888015183526040808901518a8501526060808a01518286015260809150612f41828b01612e2c565b9085015290880151908301528088019190915283529384019391850191612eae565b50979650505050505050565b60006020808385031215612f8257600080fd5b825167ffffffffffffffff811115612f9957600080fd5b8301601f81018513612faa57600080fd5b8051612fb86123aa82612340565b81815260059190911b82018301908381019087831115612fd757600080fd5b928401925b82841015612ffe578351612fef81612364565b82529284019290840190612fdc565b979650505050505050565b60008261303f577f4e487b7100000000000000000000000000000000000000000000000000000000600052601260045260246000fd5b500490565b60006020828403121561305657600080fd5b815160ff81168114612c7c57600080fd5b600060a0828403121561307957600080fd5b60405160a0810181811067ffffffffffffffff8211171561309c5761309c612276565b60405282516130aa81612364565b81526130b860208401612e2c565b602082015260408301516130cb81612c83565b604082015260608301516130de81612c83565b6060820152608083015162ffffff811681146130f957600080fd5b60808201529392505050565b60006020828403121561311757600080fd5b815180600b0b8114612c7c57600080fd5b60008060006060848603121561313d57600080fd5b8351925060208401519150604084015190509250925092565b60008060006060848603121561316b57600080fd5b835161ffff8116811461317d57600080fd5b602085015190935061318e81612c83565b604085015190925061319f81612364565b809150509250925092565b6000604082840312156131bc57600080fd5b6131c46122a5565b6131cd83612e2c565b81526020830151612ac581612c83565b600082516131ef81846020870161253e565b9190910192915050565b60006020828403121561320b57600080fd5b815167ffffffffffffffff8082111561322357600080fd5b818401915084601f83011261323757600080fd5b81518181111561324957613249612276565b61327a60207fffffffffffffffffffffffffffffffffffffffffffffffffffffffffffffffe0601f840116016122f1565b915080825285602082850101111561329157600080fd5b6132a281602084016020860161253e565b5094935050505056fea2646970667358221220cc9f73275abb36fdc39373ba08bb2c3650c74f83599298dd8bc1d3b96ea5792064736f6c634300080a0033",
  "linkReferences": {},
  "deployedLinkReferences": {}
}